:020000040800F2
:10100000FF3F0020A1250008E5110008E9110008B4
:1010100000000000000000000000000000000000D0
:10102000000000000000000000000000ED110008BA
:101030000000000000000000F1110008F511000898
:10104000F1250008F1250008F1250008F125000828
:10105000F1250008F1250008F1250008F125000818
:10106000F1250008F1250008F1250008F125000808
:10107000F1250008F1250008F1250008F1250008F8
:10108000F1250008F1250008F1250008F1250008E8
:10109000F1250008F1250008F1250008F1250008D8
:1010A000F1250008F1250008F1250008F1250008C8
:1010B000F1250008F1250008F1250008F1250008B8
:1010C00008B5054B054803331B1A062B03D9044BFF
:1010D000002B00D0984708BD080500200805002017
:1010E000000000000648074908B5091A8910CB0F0F
:1010F0005918491003D0044B002B00D0984708BD65
:1011000008050020080500200000000010B5074C6D
:101110002378002B09D1FFF7D3FF054B002B02D01A
:10112000044800E000BF0123237010BD0805002023
:10113000000000009C29000808B5094B002B03D0D3
:101140000848094900E000BF08480368002B02D1A5
:10115000FFF7C8FF08BD064B002BF9D09847F7E70B
:10116000000000009C2900080C0500200405002058
:1011700000000000144B002B00D1124B9D46402272
:1011800092029A1A924600218B460F461148124A43
:10119000121A01F0C3FA0D4B002B00D098470C4BEC
:1011A000002B00D098470020002104000D000B48C0
:1011B00001F020FA01F050FA2000290001F08EF928
:1011C00001F020FA0000080000000000000000000C
:1011D0000000000008050020280500202526000842
:1011E000FEE7C0467047C046FEE7C0467047C046AF
:1011F0007047C04608B500F09FF808BD0121114BAB
:101200001A680A431A6058680F4A02405A60186800
:101210000E4A02401A6018680D4A02401A60586867
:101220000C4A02400F205A60DA6A8243DA62186B75
:10123000094A02401A635A6B8A435A6300229A6031
:101240007047C046001002400CB8FF08FFFFF6FED2
:10125000FFFFFBFFFFFFC0FF2CFEFCFF0C21164A27
:1012600070B553680B40082B16D150685568D36A87
:10127000C02603311940802380027602000F3540DA
:10128000841C01315B029D4201D0B5420ED00B4857
:1012900001F092F8604300E00848074B084A5B6899
:1012A0001B061B0FD35CD840106170BD054801F0D0
:1012B00083F86043F1E7C0460010024000127A0054
:1012C000C4000020006CDC027047C0467047C04676
:1012D0000121002208B5064B494219611A61D96003
:1012E000DA6099629A62FFF7F1FF002008BDC046FC
:1012F0000010024010B5041C00F0F8FCFA2189002F
:1013000001F05AF800F0D8FF0120211C40420022D1
:1013100000F07AFF002010BD08B51023054A032015
:1013200011680B431360FFF7E5FFFFF7CDFF0020C7
:1013300008BDC04600200240024A13680133136012
:101340007047C04624050020014B18687047C0460E
:101350002405002010B582B00190FFF7F5FF041CB2
:10136000FFF7F2FF019B001B9842F9D302B010BDBA
:101370000221024A13688B431360704710E000E0BB
:101380000223024A11680B431360704710E000E02B
:101390000048704700000301014B1868000C7047BB
:1013A00000580140024B18680005000D7047C04608
:1013B000005801400223024A51680B4353607047B2
:1013C000005801400221024A53688B435360704722
:1013D000005801400423024A51680B435360704790
:1013E000005801400421024A53688B435360704700
:1013F0000058014081220B4B19680A431A60596852
:10140000094A0A405A601968084A0A401A6019686D
:10141000074A0A401A6000225A60DA621A639A6028
:101420007047C046001002400CF8FFF0FFFFF6FEC8
:10143000FFFFFBFFF0B54F464646C0B4041C0068F2
:1014400083B0C3074CD50C21C44A53680B40042B0E
:1014500000D166E153680B40082B00D158E1BF4D25
:10146000BF4B2A68802613402B602A68BD4BB6020A
:1014700013402B60FFF768FFBB4F804606E0FFF785
:1014800063FF4346C01AB84200D929E1B34B9946DD
:101490002B683342F3D16368012B00D1ABE1002B01
:1014A00000D09FE14B461A68AD4B802513404A4659
:1014B00013601268AB4B4E4613404A461360FFF769
:1014C00043FFA94B071CAD02984605E0FFF73CFF20
:1014D000C01B404500D903E133682B42F6D1206898
:1014E00083072AD50C229D4B59680A4200D106E198
:1014F00059680A40082A00D1F8E0E368974D002BAC
:1015000000D143E101232A68022713432B60FFF730
:101510001BFF061C05E0FFF717FF801B642800D99E
:10152000DEE02B688D4A1F42F5D0F8201368216950
:101530008343C9000B431360206803075DD443074E
:1015400074D4C30612D56369012B00D1D8E10533E9
:1015500000D02EE10421F825804A536B8B4353635E
:10156000536BA169AB43C9000B435363830622D578
:101570000C217A4A53680B400C2B00D17DE1536853
:101580000B40082B00D171E1E369744D002B00D1B1
:101590004CE180266B6B760233436B63FFF7D4FE1E
:1015A000071C05E0FFF7D0FEC01B642800D997E0B8
:1015B0006B6B3342F6D0636A002B1CD00C21674D55
:1015C0006A680A40082A00D1A0E02A68022B00D1EC
:1015D0005EE1664B2C1C13402B60FFF7B5FE8025A7
:1015E000061CAD0404E0FFF7AFFE801B642877D82B
:1015F00023682B42F7D1002073E0236A574D002B5C
:1016000000D198E001236A6A022613436B62FFF758
:101610009BFE071C04E0FFF797FEC01B64285FD801
:101620006B6A1E42F7D0206843078AD58023802644
:101630004A4A5B05D1694E4D1943D161D2697600A2
:1016400013400193019B2B6833432B60FFF77CFE13
:10165000071C04E0FFF778FEC01B642840D82B6805
:101660003342F7D001223D4D02262B6A3E4F934371
:101670002B622B6A033293432B62FFF765FE804691
:1016800005E0FFF761FE4346C01AB84228D8334B45
:1016900099462B6A1E42F4D1A368012B00D16FE159
:1016A000002B00D04CE14B4601221B6A4E4693436F
:1016B0004A461362136A042293434A461362FFF7B1
:1016C00043FE294B071C0225984604E0FFF73CFE29
:1016D000C01B404504D8336A1D42F7D1206830E76B
:1016E000032003B00CBC90469946F0BD5A68C02355
:1016F0005B02134080221202934200D0FDE6174B9A
:101700001B689B0736D5E368012B33D00120E8E73F
:10171000C02352685B02134080225202934200D0E1
:101720009DE60E4B1B689B0300D4D9E66368002B33
:1017300000D0D5E6EAE701226B6A022693436B628A
:10174000FFF702FE071C04E0FFF7FEFDC01B642844
:10175000C6D86B6A1E42F7D1206865E700100240C8
:10176000FFFFFEFFFFFFFBFF88130000FFFFFFFEF0
:1017700000700040F8258B4922690B68D200AB430A
:1017800013430B60030700D4D9E636E701222B6828
:10179000022693432B60FFF7D7FD071C04E0FFF7F9
:1017A000D3FDC01B64289BD82B681E42F7D120684C
:1017B000C3E604237B4D02266A6B134301226B634D
:1017C0006B6B93436B63FFF7BFFD071C05E0FFF7EF
:1017D000BBFDC01B642800D982E76B6B1E42F6D1AB
:1017E0002068C3E6052B35D14B4680221B68D20208
:1017F00013434A4613604B4680221B685202134330
:101800004A461360FFF7A0FD80258046654EAD0275
:10181000654F06E0FFF798FD4346C01AB84200D96D
:101820005EE733682B42F5D0206859E66A6B5F4B60
:10183000802613406B63FFF787FD7602071C05E0E7
:10184000FFF782FDC01B642800D949E76B6B334268
:10185000F6D1B0E64B461A68544B13404A46136023
:101860001268534B13404A461360CBE75368C022BB
:1018700052021340934200D086E64A4B5B6BDB0377
:1018800000D498E6E369012B00D194E6012028E713
:10189000484B802713402B60FFF756FDBF0480465E
:1018A00006E0FFF751FD4346C01A642800D917E748
:1018B0002B683C4E3B42F4D10F22F36A9343226BD8
:1018C0001343F362E26AA16A736811433A4A8024BF
:1018D000134080220B437360336852041343336018
:1018E000FFF732FDA404051C05E0FFF72DFD401BAA
:1018F000642800D9F4E633682342F6D00020F0E6ED
:101900000422284D0227696B0A436A636A6B1343FA
:101910006B63FFF719FD061C05E0FFF715FD801B43
:10192000642800D9DCE66B6B1E4A1F42F5D0F82014
:10193000536BA1698343C9000B435363206815E6C9
:10194000052B23D04B4601221B6A93434A46136260
:10195000136A042293434A461362FFF7F5FC114EC3
:1019600080460225104F06E0FFF7EEFC4346C01A02
:10197000B84200D9B4E6336A1D42F5D02068E0E5EC
:101980004A46126A13434A461362E6E74B461A6A0E
:10199000042313434A4613620123126A13434A463F
:1019A0001362DAE70010024088130000FFFFFEFF19
:1019B000FFFFFBFFFFFFFFFEFF7FC2FFF8B54F46B3
:1019C00046460C1C0121854AC0B41368051C0B4017
:1019D000A3420CD213688B4323431360136819404E
:1019E000A14255D001200CBC90469946F8BD036831
:1019F0009A0706D5F0207A494A688243A8680243CC
:101A00004A60DB072BD56B68754A012B74D0022B1B
:101A100078D0032B00D18DE012689207E2D5032124
:101A20006F4E72688A4313437360FFF78DFC6B68D7
:101A3000071C012B6ED0022B00D180E0032B00D1BC
:101A400091E00C239846674B994604E0FFF77CFC35
:101A5000C01B484554D8424673681A42F6D101214A
:101A60005E4A13688B432343136013680B40A34201
:101A7000B8D12B685B0706D559495B4B4A681340C0
:101A8000EA6813434B600320FFF734FC0020AAE709
:101A900003689A0706D5F02051494A688243A8682E
:101AA00002434A60DA07E5D56B684D4A012B56D0F0
:101AB000022B2BD0032B73D01268920792D50321EF
:101AC000474C0C2762688A4313436360FFF73CFC72
:101AD0006B68061C012B56D0022B65D0032B70D0EF
:101AE000404B984604E0FFF72FFC801B404507D889
:101AF00063681F42F7D1BCE7126892038FD471E785
:101B0000032070E71268920189D46BE71268920192
:101B1000D5D467E70B339846324B994604E0FFF77C
:101B200013FCC01B4845EBD8424673681340042B96
:101B3000F5D194E7526BD20300D570E752E70A3330
:101B40009846284B994604E0FFF7FEFBC01B48452A
:101B5000D6D8424673681340082BF5D17FE7126848
:101B60009203ACD43EE7093398461E4B994604E0F5
:101B7000FFF7EAFBC01B4845C2D8424673681340D2
:101B80000C2BF5D16BE7174B984604E0FFF7DCFB15
:101B9000801B4045B4D863683B40042BF6D168E70E
:101BA000526BD2038BD41DE70E4B984604E0FFF72F
:101BB000CBFB801B4045A3D863683B40082BF6D184
:101BC00057E7084B984604E0FFF7BEFB801B4045F3
:101BD00096D863683B400C2BF6D14AE700200240C0
:101BE0000010024088130000FFF8FFFF802370B54B
:101BF000114C161C62699B021A436261626986B0CD
:101C000013400093009B80235B000193FE3B0293F3
:101C100090200133049300230D1CC00501A90393F8
:101C2000059300F027F96268044B1A4032432A43B7
:101C3000626006B070BDC04600100240FFFFFF802A
:101C40008021034A090313680B4313607047C046A1
:101C500000100240024A034B11680B4013607047AA
:101C600000100240FFFFF7FF10B51C4C88B0211C8C
:101C70001022684600F014FD211C1022103104A827
:101C800000F00EFD0C2316494A681340082B06D0BD
:101C90000C2B02D0134808B010BD1348FBE7684670
:101CA00093021B0FC45CCB6A0F2110200B406946C6
:101CB0000918C95CC02380205B021A40400282429E
:101CC00001D09A4204D0074800F076FB6043E2E777
:101CD000054800F071FB6043DDE7C046B829000805
:101CE0000010024000127A00006CDC0208B5FFF719
:101CF000BBFF054B054A5B6820321B061B0FD35CFC
:101D0000D840034B186008BD00100240B8290008F5
:101D1000D400002008B5FFF7E9FF044B044A5B68D4
:101D200020325B055B0FD35CD84008BD0010024039
:101D3000B82900083F230360364B1A6852033BD58D
:101D4000052343600122334B1B68134040D0C2601F
:101D5000304A13681B06DB0E0361136A5B0740D52C
:101D60000523836001222B4B5B6A134043D0294B30
:101D700002621B68DB0143D502234362C022254B6C
:101D8000520259680A408262F022596892030A405E
:101D90000F21C262DA6A0A40026301225B6B1340C0
:101DA00035D143611B4A536B1B06DB0E8361136BFA
:101DB000DB03DB0FC36170471A6880235B021340AB
:101DC00023D0012301224360124B1B681340BED174
:101DD000104AC36013681B06DB0E0361136A5B07BE
:101DE000BED4136A012213400DD082600122094B38
:101DF0005B6A1340BBD10362064B1B68DB01BBD49B
:101E000001234362BAE78360ACE743609AE742612B
:101E1000C8E7C04600100240072310B50324036042
:101E2000094B5A68224042605A68ED342240826071
:101E30005A68E023DB0013400122C360034B1B6898
:101E400013400B6010BDC04600100240002002404D
:101E50007047C04610B58024044B9B681C4203D0D9
:101E6000FFF7F6FF024B1C7010BDC0460010024089
:101E70000A100240F0B55F4656464D464446F0B45F
:101E80008B46096887B000250026002900D1C0E0F4
:101E90006C4B01959A466C4B89469C466FE00268F4
:101EA0007400904603220327A2404546D2430F40C8
:101EB000A74015403D43039F0292013F0560012F5B
:101EC00000D888E0C568029A2A405D46AD68A54002
:101ED0002A43C2608022520511424BD0524601244F
:101EE00092690F2722435446A261A269012422402D
:101EF000564C0592A04603243440A400A740059AFE
:101F0000B208920042449568BD439027FF05B8424D
:101F100000D185E04E4FB84200D183E04D4FB8422A
:101F200000D183E04C4FB84200D183E04B4FB84220
:101F300000D183E00527A7403C1C2C4394606246F7
:101F4000DC431268CD0362D4224065462A606A6889
:101F50008D035AD4224065466A60AA68CD0252D4E5
:101F600022406546AA60EA6889024AD4131C2340CD
:101F70006246D3604B4601360196F34049D00123B7
:101F8000019A93404A461340F4D05A4651681022B1
:101F90000F1C97430397022F00D080E707240F25DB
:101FA0003440A400A540F708BF00C7193A6AAA4305
:101FB0005D462D69A5402A433A6203227400A2407F
:101FC000D243076802921740B84603270F40A74044
:101FD00045462F4307608768029A5D461740B8461A
:101FE000EF684546A7402F430125019A8760954039
:101FF0004768AF4310250D402D0995403D4345608E
:1020000060E71343B4E71A43ABE71A43A3E71A4365
:102010009BE707B03CBC90469946A246AB46F0BD54
:1020200000248AE70127A7403C1C86E70227A74037
:102030003C1C82E70327A7403C1C7EE70427A740FF
:102040003C1C7AE7001002400004014000000140FF
:102050000004004800080048000C00480010004838
:10206000F0B544465F4656464D46F0B4002383B073
:102070000024002970D001229446023290460C328E
:10208000914604E00A1C01331C1CDA4064D062460D
:102090000E1CA240141C1640F4D047465A0097402C
:1020A000FA43056815400560DD08AD004719019742
:1020B0003F6ABB4607271F40BF00BA464F465546FA
:1020C000AF40BA465F465546AF433D1C019F3D6257
:1020D00085684F46154085604568A5434560C468DE
:1020E0002240C260294A9C08924642461A40920009
:1020F0009740A4005444A568BA463D409027FF0588
:10210000B84230D0224FB8422FD0224FB84230D000
:10211000214FB84231D0214FB84232D005279740E5
:102120003A1C9542AED15546F643A2680133AA4304
:10213000A2601B4A1A4C1268324022606268324028
:102140006260A2683240A260E26816400A1CE66043
:10215000DA401C1C002A9AD103B03CBC9046994638
:10216000A246AB46F0BD0022DBE7674697403A1C2B
:10217000D7E7022797403A1CD3E7474697403A1CD7
:10218000CFE7042797403A1CCBE7C0460000014048
:102190000004004800080048000C004800100048F7
:1021A0000004014000690840411E8841C0B27047E8
:1021B000002A01D1816270478161FCE7436959407F
:1021C00041617047802382B05B020193019B0B4306
:1021D0000193019BC361C161019BC361C369019309
:1021E000C36901201B0C984302B070477047C0467A
:1021F00008B5044B5A69024202D05861FFF7F6FF56
:1022000008BDC0460004014070B5002815DB03245A
:10221000830889012040FC34C000261C21408140F5
:10222000114AC02594468640081C9B006344AD00BB
:102230005A59B2431043585170BD03240F23C0B202
:1022400003402040FC34251C084AC0009446890104
:10225000854021408140083B9B089B006344DA692C
:10226000AA430A43DA61E7E700E100E000ED00E09D
:102270001F2318401E3B8340181C014B18607047F9
:1022800000E100E01F2318401E3B8340181C802300
:10229000014AD0507047C04600E100E0BFF34F8FC5
:1022A000034A044BDA60BFF34F8FC046FDE7C046D8
:1022B0000400FA0500ED00E00A4A431E01209342A3
:1022C0000ED8C020084A094953600B6A00061B0259
:1022D0001B0A03430B620023002093600733136043
:1022E0007047C046FFFFFF0010E000E000ED00E097
:1022F00000280BDB8308C0330A4A9B009B5803224B
:102300001040C000C3401806800F70470F23064AD4
:10231000C0B294460340083B9B089B0063445B6843
:10232000EDE7C04600E100E018ED00E01F23184093
:102330001E3B8340181C8023014A5B00D05070472D
:1023400000E100E08023054A5B00D3581F221040C3
:10235000C340181C012318407047C04600E100E04C
:102360001F2318401E3B8340181CC023014A5B00FA
:10237000D050704700E100E0042805D00421054A50
:1023800013688B4313607047024B1A681043186040
:10239000F9E7C04610E000E07047C04608B5FFF717
:1023A000FBFF08BD042A0008C0000020040500202F
:1023B0000805002028050020002243088B4274D322
:1023C00003098B425FD3030A8B4244D3030B8B4236
:1023D00028D3030C8B420DD3FF22090212BA030C3F
:1023E0008B4202D31212090265D0030B8B4219D320
:1023F00000E0090AC30B8B4201D3CB03C01A524140
:10240000830B8B4201D38B03C01A5241430B8B4287
:1024100001D34B03C01A5241030B8B4201D30B0370
:10242000C01A5241C30A8B4201D3CB02C01A524197
:10243000830A8B4201D38B02C01A5241430A8B425A
:1024400001D34B02C01A5241030A8B4201D30B0243
:10245000C01A5241CDD2C3098B4201D3CB01C01A5D
:10246000524183098B4201D38B01C01A5241430967
:102470008B4201D34B01C01A524103098B4201D355
:102480000B01C01A5241C3088B4201D3CB00C01AC2
:10249000524183088B4201D38B00C01A524143083A
:1024A0008B4201D34B00C01A5241411A00D201465F
:1024B000524110467047FFE701B5002000F00CF8CC
:1024C00002BDC0460029F7D003B5FFF775FF0EBC6B
:1024D0004243891A1847C0467047C04630B593B08A
:1024E000FEF71AFF00238022059311938023022414
:1024F00012025B0305A80E940F921093FEF79AFF49
:10250000002800D0FEE7072503900490012101A8D0
:1025100002940195FFF752FA041E00D0FEE78023D3
:10252000194A1B03516919435161526905A91340A6
:102530000193019B80230790059308907F3B1348EC
:102540000693FFF797FCFA21114B89001868FFF7F3
:1025500033FF104B0138984200D9FEE70E4A0F496D
:102560005060C0200B6A00061B021B0A03430B626B
:102570009460156005488021FFF720FEFA20400096
:10258000FEF7E8FEF6E7C0460010024000080048EB
:10259000D4000020FFFFFF0010E000E000ED00E0AD
:1025A0000D488546002103E00C4B5B584350043135
:1025B0000B480C4B42189A42F6D30B4A02E0002318
:1025C00013600432094B9A42F9D3FEF717FE00F06C
:1025D00043F8FFF783FFFEE7FF3F0020042A0008CF
:1025E000C000002004050020080500202805002068
:1025F000FEE7000008B5011C00220020002300F0C7
:10260000D3F808BD10B50021041C00F043F9044BB9
:102610001868C36B002B00D09847201CFEF7E0FD24
:10262000EC29000838B5094B094CE41AA41009D06C
:10263000084AA518AD00ED182B68013C9847043DE9
:10264000002CF9D100F0B2F938BDC046002A0008CC
:10265000042A0008FFFFFF3F70B50D4E0D4D00240A
:10266000AD1BAD1005D0A300F35801349847A54227
:10267000F9D100F095F9084E084D0024AD1BAD10BE
:1026800005D0A300F35801349847A542F9D170BD95
:10269000F8290008F8290008F8290008002A00088D
:1026A00070B50F2A32D9041C0C430B1CA40731D17E
:1026B000151C041C103D2D0901352D0149191E68FA
:1026C00026605E6866609E68A660DE681033E6601D
:1026D00010349942F3D10F2345191340032B1BD912
:1026E0001C1F0023A4080134A400CE58EE5004336C
:1026F000A342FAD1ED18C91803231A4005D00023CC
:10270000CC5CEC5401339342FAD170BD051C002A15
:10271000F5D1FAE7051CF2E71A1CF8E770B5830754
:102720003FD0541E002A3BD0CEB2031C032503E049
:10273000621E002C34D0141C01335A1E16702B421A
:10274000F6D1032C24D9FF250D402A0215432A0473
:1027500015430F2C11D9261C103E360901363601BF
:102760001A1C9B19156055609560D5601032934214
:10277000F8D10F221440032C0AD9261FB6080136BF
:10278000B6001A1C9B1920C29342FCD103221440AC
:10279000002C05D0C9B21C1919700133A342FBD11A
:1027A00070BD141C031CCCE7F8B544465F46564682
:1027B0004D469B462F4BF0B41C68A4235B00051CC0
:1027C000E0580E1C904600284BD043681F2B0DDCB0
:1027D0005C1C002D21D102339B0044601E50002060
:1027E0003CBC90469946A246AB46F8BD224B002B16
:1027F0003CD0C820400000E000BF002836D0A42212
:1028000000235200A15843600160A0504032835021
:10281000043283500124002DDDD09A00914681447A
:10282000424688214F467A50C42252009046804446
:1028300042468739994012688A460A43944642467E
:1028400061461160842249465F4652008F50022D36
:10285000C1D1021C55468D32FF3211680D431560FF
:10286000B9E7201C4D30FF30E050AEE70120404278
:10287000B6E7C046EC2900080000000008B5034B8D
:10288000002B02D00248FFF7B5FE08BD0000000093
:1028900025260008F0B556465F464D464446F0B43E
:1028A0000E1C3C4B87B01B68019003934933FF33E8
:1028B0000493A422039B52009F58002F4CD0049BEA
:1028C000984600239B46C4235B009C46BC44634659
:1028D0000293C6235B009A467C68BA44A5007D1922
:1028E000013C08D526E06B1DFF331B68B34204D0C2
:1028F000043D013C1ED3002EF5D17B686A68013B84
:10290000A3423AD05B466B60002AF1D07B68029903
:1029100099460123A34009680591194223D19047A4
:102920007B684B45C5D143461B68BB42C1D1043DC2
:10293000013CE0D2184B002B0ED07B68002B23D13A
:102940003B68002B24D04246381C136000E000BFD7
:1029500043461F68002FB6D107B03CBC904699464D
:10296000A246AB46F0BD51460968194207D12B1C5F
:102970008433196801989047D2E77C60C4E72B1C28
:10298000843318689047CBE73B68B8461F1CE1E7E3
:102990000023FAE7EC290008000000000000000016
:1029A000F8B5C046F8BC08BC9E467047F8B5C046AE
:0829B000F8BC08BC9E4670470C
:1029B80002030405060708090A0B0C0D0E0F101078
:1029C8000102030405060708090A0B0C0D0E0F1077
:1029D80000000000010203040102030406070809BD
:0829E80043000000D8000020AC
:0829F00084E7FF7F01000000F5
:0829F8007D28000839110008D8
:042A00000D110008AC
:102A040000000000000000000000000001020304B8
:102A14000607080900127A0000000000C403002021
:102A24002C0400209404002000000000000000009A
:102A34000000000000000000000000000000000092
:102A4400000000000000000000000000E829000869
:102A54000000000000000000000000000000000072
:102A64000000000000000000000000000000000062
:102A74000000000000000000000000000000000052
:102A84000000000000000000000000000000000042
:102A94000000000000000000000000000000000032
:102AA4000000000000000000000000000000000022
:102AB4000000000000000000000000000000000012
:102AC40001000000000000000E33CDAB34126DE6AF
:102AD400ECDE05000B000000000000000000000018
:102AE40000000000000000000000000000000000E2
:102AF40000000000000000000000000000000000D2
:102B040000000000000000000000000000000000C1
:102B140000000000000000000000000000000000B1
:042E4400D800002092
:042E48000000000086
:04000005080025A129
:00000001FF
